{
  "result": {
    "hex": "01000000029e67ea4e2b48f9a7b4c2db25ce73b3d544ba8bf0655f606f29a55057c5455431000000006a47304402202cbb7d2eb42c082d903bd02e36b9d9e27de7c91031af4142b2a3a65aaf2359c10220223babfcdb57e627bb38dd1fa8c01e15174385a2753c488de1dcc202c52acd200121036da7a2dab0e83d157bd3032a7f0dcef0334a1bb7803799acfc05a00713a54480feffffff400e75c43ea8f789371f1e6b2a93b669fd76438852381492a30c32a76314aa27000000006b483045022100924b651d6baeb5a15284f8af3bcedc07d621e0bb05e138aee690d23162717ec702205083db9b0a38568a65d8c1954ee15db5d13e7f13197bb9eecc79fc73be366ffa0121036da7a2dab0e83d157bd3032a7f0dcef0334a1bb7803799acfc05a00713a54480feffffff0200e1f505000000001976a914ac40fbba68294e64b32cbad16e1ba32f9999984a88ac37410601000000001976a914617750dfe4543b8907ba2a86b7591a056cbfaef488acdf030000",
    "txid": "34572253f55579876a53945077aca40b3a27b06dbe1ecb4a4f5e8d453b64f2cf",
    "overwintered": false,
    "version": 1,
    "locktime": 991,
    "vin": [
      {
        "txid": "315445c55750a5296f605f65f08bba44d5b373ce25dbc2b4a7f9482b4eea679e",
        "vout": 0,
        "scriptSig": {
          "asm": "304402202cbb7d2eb42c082d903bd02e36b9d9e27de7c91031af4142b2a3a65aaf2359c10220223babfcdb57e627bb38dd1fa8c01e15174385a2753c488de1dcc202c52acd20[ALL] 036da7a2dab0e83d157bd3032a7f0dcef0334a1bb7803799acfc05a00713a54480",
          "hex": "47304402202cbb7d2eb42c082d903bd02e36b9d9e27de7c91031af4142b2a3a65aaf2359c10220223babfcdb57e627bb38dd1fa8c01e15174385a2753c488de1dcc202c52acd200121036da7a2dab0e83d157bd3032a7f0dcef0334a1bb7803799acfc05a00713a54480"
        },
        "sequence": 4294967294
      },
      {
        "txid": "27aa1463a7320ca392143852884376fd69b6932a6b1e1f3789f7a83ec4750e40",
        "vout": 0,
        "scriptSig": {
          "asm": "3045022100924b651d6baeb5a15284f8af3bcedc07d621e0bb05e138aee690d23162717ec702205083db9b0a38568a65d8c1954ee15db5d13e7f13197bb9eecc79fc73be366ffa[ALL] 036da7a2dab0e83d157bd3032a7f0dcef0334a1bb7803799acfc05a00713a54480",
          "hex": "483045022100924b651d6baeb5a15284f8af3bcedc07d621e0bb05e138aee690d23162717ec702205083db9b0a38568a65d8c1954ee15db5d13e7f13197bb9eecc79fc73be366ffa0121036da7a2dab0e83d157bd3032a7f0dcef0334a1bb7803799acfc05a00713a54480"
        },
        "sequence": 4294967294
      }
    ],
    "vout": [
      {
        "value": 1.00000000,
        "valueZat": 100000000,
        "valueSat": 100000000,
        "n": 0,
        "scriptPubKey": {
          "asm": "OP_DUP OP_HASH160 ac40fbba68294e64b32cbad16e1ba32f9999984a OP_EQUALVERIFY OP_CHECKSIG",
          "hex": "76a914ac40fbba68294e64b32cbad16e1ba32f9999984a88ac",
          "reqSigs": 1,
          "type": "pubkeyhash",
          "addresses": [
            "tmRR9QHYzYQJXRPrsL8oiKVoe6MX4MgGkuN"
          ]
        }
      },
      {
        "value": 0.17187127,
        "valueZat": 17187127,
        "valueSat": 17187127,
        "n": 1,
        "scriptPubKey": {
          "asm": "OP_DUP OP_HASH160 617750dfe4543b8907ba2a86b7591a056cbfaef4 OP_EQUALVERIFY OP_CHECKSIG",
          "hex": "76a914617750dfe4543b8907ba2a86b7591a056cbfaef488ac",
          "reqSigs": 1,
          "type": "pubkeyhash",
          "addresses": [
            "tmJbhozdHWEcrdEtHmV4JMD4A8a97YBZGiB"
          ]
        }
      }
    ],
    "vjoinsplit": [
    ]
  },
  "error": null,
  "id": null
}