{
  "result": {
    "hex": "01000000010000000000000000000000000000000000000000000000000000000000000000ffffffff0502de010101ffffffff01902f5009000000001976a9144719092cafd58276aba12a0dbb2a76952d2da8df88ac00000000",
    "txid": "f15277c5461fb6eda9b0d96f5c4cfa1d117d4e3c2d21af75628dadd7e9febbff",
    "overwintered": false,
    "version": 1,
    "locktime": 0,
    "vin": [
      {
        "coinbase": "02de010101",
        "sequence": 4294967295
      }
    ],
    "vout": [
      {
        "value": 1.56250000,
        "valueZat": 156250000,
        "valueSat": 156250000,
        "n": 0,
        "scriptPubKey": {
          "asm": "OP_DUP OP_HASH160 4719092cafd58276aba12a0dbb2a76952d2da8df OP_EQUALVERIFY OP_CHECKSIG",
          "hex": "76a9144719092cafd58276aba12a0dbb2a76952d2da8df88ac",
          "reqSigs": 1,
          "type": "pubkeyhash",
          "addresses": [
            "tmGCHJK49G9PfmawFMM37oCFW8DtuQogMJB"
          ]
        }
      }
    ],
    "vjoinsplit": [
    ],
    "blockhash": "0591e729391e3a0d946cffe8120fbf24294e418be45cac83cdbcbba61a26c02d",
    "height": 478,
    "confirmations": 524,
    "time": 1582632287,
    "blocktime": 1582632287
  },
  "error": null,
  "id": null
}