{
  "result": {
    "txid": "e7e3a59b969fee78aa20976219449561aefe649208e4cfa08c3b2f932287dbff",
    "version": 2,
    "type": 0,
    "size": 90,
    "locktime": 0,
    "vin": [
      {
        "coinbase": "02cf000101",
        "sequence": 4294967295
      }
    ],
    "vout": [
      {
        "value": 464.28571429,
        "valueSat": 46428571429,
        "n": 0,
        "scriptPubKey": {
          "asm": "OP_DUP OP_HASH160 8d8e13d98f9eb027e2f24f32206b73f0ed19942d OP_EQUALVERIFY OP_CHECKSIG",
          "hex": "76a9148d8e13d98f9eb027e2f24f32206b73f0ed19942d88ac",
          "reqSigs": 1,
          "type": "pubkeyhash",
          "addresses": [
            "yZDvKyJeoufwD1sa1c33V9RrQuWQd1ztp5"
          ]
        }
      }
    ],
    "hex": "02000000010000000000000000000000000000000000000000000000000000000000000000ffffffff0502cf000101ffffffff0125c75bcf0a0000001976a9148d8e13d98f9eb027e2f24f32206b73f0ed19942d88ac00000000",
    "blockhash": "7801565988a475f2e67caef97264106e1a9b7fa1ef8b7b2bcc7b97ca317fa685",
    "height": 207,
    "confirmations": 296,
    "time": 1582555133,
    "blocktime": 1582555133,
    "instantlock": false,
    "instantlock_internal": false,
    "chainlock": false
  },
  "error": null,
  "id": null
}