{
  "result": {
    "txid": "7bf239615074e05d5863fc2e7ef01e6a3b6315cc90f298bda17851c4001dd77f",
    "version": 2,
    "type": 0,
    "size": 225,
    "locktime": 502,
    "vin": [
      {
        "txid": "0167f550d26bbc6dd00778d3c63d7aca14c2125a60bc1f622d05a98662b361b8",
        "vout": 0,
        "scriptSig": {
          "asm": "304402205656eb88dbef56a93c0adc6f0f7059889ac39b37754be6574e4de92aed28fe440220120e3e8b816e806e7b581d38b4579c260a029ba2125521c658f58e5b80f9469c[ALL] 029ce1b4d26e3838d73fa88c71b067dae2c9d432331ead914d3d1a223ff328124a",
          "hex": "47304402205656eb88dbef56a93c0adc6f0f7059889ac39b37754be6574e4de92aed28fe440220120e3e8b816e806e7b581d38b4579c260a029ba2125521c658f58e5b80f9469c0121029ce1b4d26e3838d73fa88c71b067dae2c9d432331ead914d3d1a223ff328124a"
        },
        "sequence": 4294967294
      }
    ],
    "vout": [
      {
        "value": 6.00000000,
        "valueSat": 600000000,
        "n": 0,
        "scriptPubKey": {
          "asm": "OP_DUP OP_HASH160 713d1cc48109ce9e95518fa759e8793cb47192d3 OP_EQUALVERIFY OP_CHECKSIG",
          "hex": "76a914713d1cc48109ce9e95518fa759e8793cb47192d388ac",
          "reqSigs": 1,
          "type": "pubkeyhash",
          "addresses": [
            "yWeCR3Pfwi1TWGvLKHEZVof7H6KqA4XP3h"
          ]
        }
      },
      {
        "value": 425.11114899,
        "valueSat": 42511114899,
        "n": 1,
        "scriptPubKey": {
          "asm": "OP_DUP OP_HASH160 f1ae7fe687ea639ea93066f25e48697474a31bee OP_EQUALVERIFY OP_CHECKSIG",
          "hex": "76a914f1ae7fe687ea639ea93066f25e48697474a31bee88ac",
          "reqSigs": 1,
          "type": "pubkeyhash",
          "addresses": [
            "yiMLjsyhnexU4WTTZv49gn4Cz6VUK7xoiJ"
          ]
        }
      }
    ],
    "hex": "0200000001b861b36286a9052d621fbc605a12c214ca7a3dc6d37807d06dbc6bd250f56701000000006a47304402205656eb88dbef56a93c0adc6f0f7059889ac39b37754be6574e4de92aed28fe440220120e3e8b816e806e7b581d38b4579c260a029ba2125521c658f58e5b80f9469c0121029ce1b4d26e3838d73fa88c71b067dae2c9d432331ead914d3d1a223ff328124afeffffff020046c323000000001976a914713d1cc48109ce9e95518fa759e8793cb47192d388ac9322dce5090000001976a914f1ae7fe687ea639ea93066f25e48697474a31bee88acf6010000",
    "instantlock": false,
    "instantlock_internal": false,
    "chainlock": false
  },
  "error": null,
  "id": null
}