{
  "result": {
    "hex": "01000000010000000000000000000000000000000000000000000000000000000000000000ffffffff05021e120101ffffffff020010a5d4e80000001976a91429573f365d9252ba5046f12b3f246db888171c1c88ac0000000000000000266a24aa21a9ede2f61c3f71d1defd3fa999dfa36953755c690689799962b48bebd836974e8cf900000000",
    "txid": "10f1da28e0eebe3e879a7f909f738d8b7b529897bfdce49475901d9c75bffcff",
    "hash": "10f1da28e0eebe3e879a7f909f738d8b7b529897bfdce49475901d9c75bffcff",
    "size": 137,
    "vsize": 137,
    "version": 1,
    "locktime": 0,
    "vin": [
      {
        "coinbase": "021e120101",
        "sequence": 4294967295
      }
    ],
    "vout": [
      {
        "value": 10000.00000000,
        "n": 0,
        "scriptPubKey": {
          "asm": "OP_DUP OP_HASH160 29573f365d9252ba5046f12b3f246db888171c1c OP_EQUALVERIFY OP_CHECKSIG",
          "hex": "76a91429573f365d9252ba5046f12b3f246db888171c1c88ac",
          "reqSigs": 1,
          "type": "pubkeyhash",
          "addresses": [
            "mjHYWwZhyeLfnrSMXuUhxGAuUyNVNuqRSF"
          ]
        }
      },
      {
        "value": 0.00000000,
        "n": 1,
        "scriptPubKey": {
          "asm": "OP_RETURN aa21a9ede2f61c3f71d1defd3fa999dfa36953755c690689799962b48bebd836974e8cf9",
          "hex": "6a24aa21a9ede2f61c3f71d1defd3fa999dfa36953755c690689799962b48bebd836974e8cf9",
          "type": "nulldata"
        }
      }
    ],
    "blockhash": "93b866e6eb17c55b39d485b65ba995686d326af4cf1eef6a28645d7a714b0cad",
    "confirmations": 373,
    "time": 1582207314,
    "blocktime": 1582207314
  },
  "error": null,
  "id": null
}