{
  "result": {
    "hex": "01000000012d502d1c0d6689960a250d70494163259c88fe6d554724689952fbe9ddc8535d000000006b483045022100ae75bb8f47d8cafb52f301fec8b36cbfc999e2857e39753ae9a997d1359d87ee02200efe8b079893fb73a21a62fed5a2427f281bed88f430ca78dc8700748dc9569d012102555b735e3a77dc98d0bcaaf600c87ab51780845acd1678e739c7e5375e6f5f27feffffff0200725ca4e60000001976a914c16ddc4a38141b2a8079e5adb72f07793e05fd8788ac00bd522a020000001976a91484df23e160bde643cfd7bc94bcf3e5579a24704c88ac92130000",
    "txid": "79ff0d0b16a0f0a0d73e7633dcc5812d7174df911f506367620c085d11b946ba",
    "hash": "79ff0d0b16a0f0a0d73e7633dcc5812d7174df911f506367620c085d11b946ba",
    "size": 226,
    "vsize": 226,
    "version": 1,
    "locktime": 5010,
    "vin": [
      {
        "txid": "5d53c8dde9fb5299682447556dfe889c25634149700d250a9689660d1c2d502d",
        "vout": 0,
        "scriptSig": {
          "asm": "3045022100ae75bb8f47d8cafb52f301fec8b36cbfc999e2857e39753ae9a997d1359d87ee02200efe8b079893fb73a21a62fed5a2427f281bed88f430ca78dc8700748dc9569d[ALL] 02555b735e3a77dc98d0bcaaf600c87ab51780845acd1678e739c7e5375e6f5f27",
          "hex": "483045022100ae75bb8f47d8cafb52f301fec8b36cbfc999e2857e39753ae9a997d1359d87ee02200efe8b079893fb73a21a62fed5a2427f281bed88f430ca78dc8700748dc9569d012102555b735e3a77dc98d0bcaaf600c87ab51780845acd1678e739c7e5375e6f5f27"
        },
        "sequence": 4294967294
      }
    ],
    "vout": [
      {
        "value": 9906.00000000,
        "n": 0,
        "scriptPubKey": {
          "asm": "OP_DUP OP_HASH160 c16ddc4a38141b2a8079e5adb72f07793e05fd87 OP_EQUALVERIFY OP_CHECKSIG",
          "hex": "76a914c16ddc4a38141b2a8079e5adb72f07793e05fd8788ac",
          "reqSigs": 1,
          "type": "pubkeyhash",
          "addresses": [
            "my9iKKTx1rXKmxBHPfYGK4tjz2X3KwPV3c"
          ]
        }
      },
      {
        "value": 93.00000000,
        "n": 1,
        "scriptPubKey": {
          "asm": "OP_DUP OP_HASH160 84df23e160bde643cfd7bc94bcf3e5579a24704c OP_EQUALVERIFY OP_CHECKSIG",
          "hex": "76a91484df23e160bde643cfd7bc94bcf3e5579a24704c88ac",
          "reqSigs": 1,
          "type": "pubkeyhash",
          "addresses": [
            "msdWoRdyU3cBgpFKGV6df1LYochuz7NALB"
          ]
        }
      }
    ]
  },
  "error": null,
  "id": null
}