{
  "result": {
    "txid": "043c41d040360b0d0a1907c903de721de8ed1dd98148d87e71d95b3c1320d3ff",
    "hash": "bf0c17fc230262f9b3a10e7ced3621bd65c3c119ebb6085127c00cdcf58f32ba",
    "version": 2,
    "size": 171,
    "vsize": 144,
    "weight": 576,
    "locktime": 0,
    "vin": [
      {
        "coinbase": "0297010101",
        "sequence": 4294967295
      }
    ],
    "vout": [
      {
        "value": 12.50000000,
        "n": 0,
        "scriptPubKey": {
          "asm": "OP_HASH160 8ba98d3323a8bfa4f1b629a3e2fd9fec74dc5dfe OP_EQUAL",
          "hex": "a9148ba98d3323a8bfa4f1b629a3e2fd9fec74dc5dfe87",
          "reqSigs": 1,
          "type": "scripthash",
          "addresses": [
            "QZLT9cUB35dniYZFGh7UY3VGW487YKqH2J"
          ]
        }
      },
      {
        "value": 0.00000000,
        "n": 1,
        "scriptPubKey": {
          "asm": "OP_RETURN aa21a9ede2f61c3f71d1defd3fa999dfa36953755c690689799962b48bebd836974e8cf9",
          "hex": "6a24aa21a9ede2f61c3f71d1defd3fa999dfa36953755c690689799962b48bebd836974e8cf9",
          "type": "nulldata"
        }
      }
    ],
    "hex": "020000000001010000000000000000000000000000000000000000000000000000000000000000ffffffff050297010101ffffffff02807c814a0000000017a9148ba98d3323a8bfa4f1b629a3e2fd9fec74dc5dfe870000000000000000266a24aa21a9ede2f61c3f71d1defd3fa999dfa36953755c690689799962b48bebd836974e8cf90120000000000000000000000000000000000000000000000000000000000000000000000000",
    "blockhash": "ee5d8860ab8a2678f7103bdebf50ea0aba22a2b072a261de1cc16382eccedd91",
    "confirmations": 595,
    "time": 1582031895,
    "blocktime": 1582031895
  }
,
  "error": null,
  "id": null
}